{
  "contractName": "Marketplace",
  "abi": [
    {
      "inputs": [],
      "stateMutability": "nonpayable",
      "type": "constructor"
    },
    {
      "anonymous": false,
      "inputs": [
        {
          "indexed": false,
          "internalType": "address",
          "name": "issuer",
          "type": "address"
        },
        {
          "indexed": false,
          "internalType": "address",
          "name": "holder",
          "type": "address"
        },
        {
          "indexed": false,
          "internalType": "bytes15",
          "name": "name",
          "type": "bytes15"
        },
        {
          "indexed": false,
          "internalType": "uint32",
          "name": "id",
          "type": "uint32"
        },
        {
          "indexed": false,
          "internalType": "uint72",
          "name": "price",
          "type": "uint72"
        },
        {
          "indexed": false,
          "internalType": "uint8",
          "name": "percentRefund",
          "type": "uint8"
        },
        {
          "indexed": false,
          "internalType": "bool",
          "name": "purchased",
          "type": "bool"
        },
        {
          "indexed": false,
          "internalType": "bool",
          "name": "returnRequested",
          "type": "bool"
        },
        {
          "indexed": false,
          "internalType": "bool",
          "name": "withdrawn",
          "type": "bool"
        },
        {
          "indexed": false,
          "internalType": "uint32",
          "name": "creationTime",
          "type": "uint32"
        },
        {
          "indexed": false,
          "internalType": "uint32",
          "name": "duration",
          "type": "uint32"
        },
        {
          "indexed": false,
          "internalType": "uint32",
          "name": "refundWindow",
          "type": "uint32"
        }
      ],
      "name": "ProductCreated",
      "type": "event"
    },
    {
      "anonymous": false,
      "inputs": [
        {
          "indexed": false,
          "internalType": "uint32",
          "name": "id",
          "type": "uint32"
        }
      ],
      "name": "ProductPurchased",
      "type": "event"
    },
    {
      "anonymous": false,
      "inputs": [
        {
          "indexed": false,
          "internalType": "uint32",
          "name": "id",
          "type": "uint32"
        }
      ],
      "name": "ProductReturned",
      "type": "event"
    },
    {
      "anonymous": false,
      "inputs": [
        {
          "indexed": false,
          "internalType": "uint32",
          "name": "id",
          "type": "uint32"
        }
      ],
      "name": "ProductWithdrawn",
      "type": "event"
    },
    {
      "anonymous": false,
      "inputs": [
        {
          "indexed": false,
          "internalType": "uint32",
          "name": "id",
          "type": "uint32"
        }
      ],
      "name": "ReturnRequested",
      "type": "event"
    },
    {
      "stateMutability": "nonpayable",
      "type": "fallback"
    },
    {
      "inputs": [],
      "name": "maxProductsPerBuyerPerIssuer",
      "outputs": [
        {
          "internalType": "uint8",
          "name": "",
          "type": "uint8"
        }
      ],
      "stateMutability": "view",
      "type": "function",
      "constant": true
    },
    {
      "inputs": [],
      "name": "maxProductsPerIssuer",
      "outputs": [
        {
          "internalType": "uint8",
          "name": "",
          "type": "uint8"
        }
      ],
      "stateMutability": "view",
      "type": "function",
      "constant": true
    },
    {
      "inputs": [],
      "name": "maximumPrice",
      "outputs": [
        {
          "internalType": "uint72",
          "name": "",
          "type": "uint72"
        }
      ],
      "stateMutability": "view",
      "type": "function",
      "constant": true
    },
    {
      "inputs": [],
      "name": "name",
      "outputs": [
        {
          "internalType": "bytes16",
          "name": "",
          "type": "bytes16"
        }
      ],
      "stateMutability": "view",
      "type": "function",
      "constant": true
    },
    {
      "inputs": [],
      "name": "percentFee",
      "outputs": [
        {
          "internalType": "uint8",
          "name": "",
          "type": "uint8"
        }
      ],
      "stateMutability": "view",
      "type": "function",
      "constant": true
    },
    {
      "inputs": [],
      "name": "productCount",
      "outputs": [
        {
          "internalType": "uint32",
          "name": "",
          "type": "uint32"
        }
      ],
      "stateMutability": "view",
      "type": "function",
      "constant": true
    },
    {
      "inputs": [
        {
          "internalType": "uint32",
          "name": "",
          "type": "uint32"
        }
      ],
      "name": "products",
      "outputs": [
        {
          "internalType": "address",
          "name": "issuer",
          "type": "address"
        },
        {
          "internalType": "address",
          "name": "holder",
          "type": "address"
        },
        {
          "internalType": "bytes15",
          "name": "name",
          "type": "bytes15"
        },
        {
          "internalType": "uint32",
          "name": "id",
          "type": "uint32"
        },
        {
          "internalType": "uint72",
          "name": "price",
          "type": "uint72"
        },
        {
          "internalType": "uint8",
          "name": "percentRefund",
          "type": "uint8"
        },
        {
          "internalType": "bool",
          "name": "purchased",
          "type": "bool"
        },
        {
          "internalType": "bool",
          "name": "returnRequested",
          "type": "bool"
        },
        {
          "internalType": "bool",
          "name": "withdrawn",
          "type": "bool"
        },
        {
          "internalType": "uint32",
          "name": "creationTime",
          "type": "uint32"
        },
        {
          "internalType": "uint32",
          "name": "duration",
          "type": "uint32"
        },
        {
          "internalType": "uint32",
          "name": "refundWindow",
          "type": "uint32"
        }
      ],
      "stateMutability": "view",
      "type": "function",
      "constant": true
    },
    {
      "inputs": [
        {
          "internalType": "address",
          "name": "",
          "type": "address"
        },
        {
          "internalType": "address",
          "name": "",
          "type": "address"
        }
      ],
      "name": "productsPerBuyerPerIssuer",
      "outputs": [
        {
          "internalType": "uint24",
          "name": "",
          "type": "uint24"
        }
      ],
      "stateMutability": "view",
      "type": "function",
      "constant": true
    },
    {
      "inputs": [
        {
          "internalType": "address",
          "name": "",
          "type": "address"
        }
      ],
      "name": "productsPerIssuer",
      "outputs": [
        {
          "internalType": "uint24",
          "name": "",
          "type": "uint24"
        }
      ],
      "stateMutability": "view",
      "type": "function",
      "constant": true
    },
    {
      "stateMutability": "payable",
      "type": "receive",
      "payable": true
    },
    {
      "inputs": [],
      "name": "toggleContractActive",
      "outputs": [],
      "stateMutability": "nonpayable",
      "type": "function"
    },
    {
      "inputs": [
        {
          "internalType": "uint256",
          "name": "amount",
          "type": "uint256"
        }
      ],
      "name": "deposit",
      "outputs": [],
      "stateMutability": "payable",
      "type": "function",
      "payable": true
    },
    {
      "inputs": [
        {
          "internalType": "uint256",
          "name": "amount",
          "type": "uint256"
        }
      ],
      "name": "withdraw",
      "outputs": [],
      "stateMutability": "nonpayable",
      "type": "function"
    },
    {
      "inputs": [
        {
          "internalType": "string",
          "name": "_name",
          "type": "string"
        },
        {
          "internalType": "uint72",
          "name": "_price",
          "type": "uint72"
        },
        {
          "internalType": "uint8",
          "name": "_percentRefund",
          "type": "uint8"
        },
        {
          "internalType": "uint32",
          "name": "_duration",
          "type": "uint32"
        },
        {
          "internalType": "uint32",
          "name": "_refundWindow",
          "type": "uint32"
        }
      ],
      "name": "createProduct",
      "outputs": [],
      "stateMutability": "nonpayable",
      "type": "function"
    },
    {
      "inputs": [
        {
          "internalType": "uint32",
          "name": "_id",
          "type": "uint32"
        },
        {
          "internalType": "uint8",
          "name": "_code",
          "type": "uint8"
        }
      ],
      "name": "morphProduct",
      "outputs": [],
      "stateMutability": "payable",
      "type": "function",
      "payable": true
    }
  ],
  "bytecode": "0x60806040526000600160146101000a81548160ff02191690831515021790555034801561002b57600080fd5b507f5469636b65746c79000000000000000000000000000000000000000000000000600160006101000a8154816fffffffffffffffffffffffffffffffff021916908360801c0217905550336000806101000a81548173ffffffffffffffffffffffffffffffffffffffff021916908373ffffffffffffffffffffffffffffffffffffffff160217905550613ec1806100c56000396000f3fe6080604052600436106100e15760003560e01c8063693fd7e21161007f578063991622781161005957806399162278146102c1578063b6b55f25146102dd578063bf712fd6146102f9578063e0f6ef8714610341576100e8565b8063693fd7e2146102305780638c6356c71461026d57806394839b2d14610298576100e8565b806317ee4f2b116100bb57806317ee4f2b1461017457806323e45f62146101b15780632e1a7d4d146101dc5780634c1a411514610205576100e8565b806306fdde031461010757806312e1bae0146101325780631385d24c1461015d576100e8565b366100e857005b3480156100f457600080fd5b506000803690501461010557600080fd5b005b34801561011357600080fd5b5061011c61036c565b6040516101299190612a26565b60405180910390f35b34801561013e57600080fd5b5061014761037f565b6040516101549190612a5d565b60405180910390f35b34801561016957600080fd5b50610172610384565b005b34801561018057600080fd5b5061019b60048036038101906101969190612aea565b61043e565b6040516101a89190612b35565b60405180910390f35b3480156101bd57600080fd5b506101c6610460565b6040516101d39190612b74565b60405180910390f35b3480156101e857600080fd5b5061020360048036038101906101fe9190612bc5565b61046c565b005b34801561021157600080fd5b5061021a6105be565b6040516102279190612a5d565b60405180910390f35b34801561023c57600080fd5b5061025760048036038101906102529190612bf2565b6105c3565b6040516102649190612b35565b60405180910390f35b34801561027957600080fd5b506102826105f4565b60405161028f9190612a5d565b60405180910390f35b3480156102a457600080fd5b506102bf60048036038101906102ba9190612e0c565b6105f9565b005b6102db60048036038101906102d69190612ea3565b610d8b565b005b6102f760048036038101906102f29190612bc5565b61276d565b005b34801561030557600080fd5b50610320600480360381019061031b9190612ee3565b6127d2565b6040516103389c9b9a99989796959493929190612f84565b60405180910390f35b34801561034d57600080fd5b50610356612908565b604051610363919061303e565b60405180910390f35b600160009054906101000a900460801b81565b600581565b60008054906101000a900473ffffffffffffffffffffffffffffffffffffffff1673ffffffffffffffffffffffffffffffffffffffff163373ffffffffffffffffffffffffffffffffffffffff1614610412576040517f08c379a0000000000000000000000000000000000000000000000000000000008152600401610409906130b6565b60405180910390fd5b600160149054906101000a900460ff1615600160146101000a81548160ff021916908315150217905550565b60046020528060005260406000206000915054906101000a900462ffffff1681565b6706f05b59d3b2000081565b600560003373ffffffffffffffffffffffffffffffffffffffff1673ffffffffffffffffffffffffffffffffffffffff168152602001908152602001600020548111156104b857600080fd5b80600560003373ffffffffffffffffffffffffffffffffffffffff1673ffffffffffffffffffffffffffffffffffffffff16815260200190815260200160002060008282546105079190613105565b9250508190555060003373ffffffffffffffffffffffffffffffffffffffff16826040516105349061316a565b60006040518083038185875af1925050503d8060008114610571576040519150601f19603f3d011682016040523d82523d6000602084013e610576565b606091505b50509050806105ba576040517f08c379a00000000000000000000000000000000000000000000000000000000081526004016105b1906131cb565b60405180910390fd5b5050565b600381565b60036020528160005260406000206020528060005260406000206000915091509054906101000a900462ffffff1681565b600281565b600160149054906101000a900460ff16610d845760008551905060008111610656576040517f08c379a000000000000000000000000000000000000000000000000000000000815260040161064d90613237565b60405180910390fd5b600f81111561069a576040517f08c379a0000000000000000000000000000000000000000000000000000000008152600401610691906132a3565b60405180910390fd5b60648568ffffffffffffffffff1610156106e9576040517f08c379a00000000000000000000000000000000000000000000000000000000081526004016106e09061330f565b60405180910390fd5b6706f05b59d3b2000068ffffffffffffffffff168568ffffffffffffffffff16111561074a576040517f08c379a00000000000000000000000000000000000000000000000000000000081526004016107419061337b565b60405180910390fd5b600560ff16600460003373ffffffffffffffffffffffffffffffffffffffff1673ffffffffffffffffffffffffffffffffffffffff16815260200190815260200160002060009054906101000a900462ffffff1662ffffff16106107e3576040517f08c379a00000000000000000000000000000000000000000000000000000000081526004016107da906133e7565b60405180910390fd5b60008460ff16101580156107fb575060648460ff1611155b61083a576040517f08c379a000000000000000000000000000000000000000000000000000000000815260040161083190613479565b60405180910390fd5b8163ffffffff168363ffffffff1611610888576040517f08c379a000000000000000000000000000000000000000000000000000000000815260040161087f9061350b565b60405180910390fd5b6001601081819054906101000a900463ffffffff16809291906108aa9061352b565b91906101000a81548163ffffffff021916908363ffffffff160217905550506000600f87015190506108da61291e565b33816000019073ffffffffffffffffffffffffffffffffffffffff16908173ffffffffffffffffffffffffffffffffffffffff168152505033816020019073ffffffffffffffffffffffffffffffffffffffff16908173ffffffffffffffffffffffffffffffffffffffff168152505081816040019070ffffffffffffffffffffffffffffffffff1916908170ffffffffffffffffffffffffffffffffff191681525050600160109054906101000a900463ffffffff16816060019063ffffffff16908163ffffffff168152505086816080019068ffffffffffffffffff16908168ffffffffffffffffff1681525050858160a0019060ff16908160ff168152505060008160c001901515908115158152505060008160e00190151590811515815250506000816101000190151590811515815250504281610120019063ffffffff16908163ffffffff16815250508481610140019063ffffffff16908163ffffffff16815250508381610160019063ffffffff16908163ffffffff16815250508060026000600160109054906101000a900463ffffffff1663ffffffff1663ffffffff16815260200190815260200160002060008201518160000160006101000a81548173ffffffffffffffffffffffffffffffffffffffff021916908373ffffffffffffffffffffffffffffffffffffffff16021790555060208201518160010160006101000a81548173ffffffffffffffffffffffffffffffffffffffff021916908373ffffffffffffffffffffffffffffffffffffffff16021790555060408201518160020160006101000a8154816effffffffffffffffffffffffffffff021916908360881c0217905550606082015181600201600f6101000a81548163ffffffff021916908363ffffffff16021790555060808201518160020160136101000a81548168ffffffffffffffffff021916908368ffffffffffffffffff16021790555060a082015181600201601c6101000a81548160ff021916908360ff16021790555060c082015181600201601d6101000a81548160ff02191690831515021790555060e082015181600201601e6101000a81548160ff02191690831515021790555061010082015181600201601f6101000a81548160ff0219169083151502179055506101208201518160030160006101000a81548163ffffffff021916908363ffffffff1602179055506101408201518160030160046101000a81548163ffffffff021916908363ffffffff1602179055506101608201518160030160086101000a81548163ffffffff021916908363ffffffff160217905550905050600460003373ffffffffffffffffffffffffffffffffffffffff1673ffffffffffffffffffffffffffffffffffffffff168152602001908152602001600020600081819054906101000a900462ffffff1680929190610cfd90613557565b91906101000a81548162ffffff021916908362ffffff160217905550507f6f4a147dbd910d85156fcf62a965cf0064114002ffa03cbc2b215522e1a7dd31333384600160109054906101000a900463ffffffff168b8b60008060008a61012001518f8f604051610d789c9b9a99989796959493929190612f84565b60405180910390a15050505b5050505050565b60008160ff16118015610da1575060058160ff16105b610de0576040517f08c379a0000000000000000000000000000000000000000000000000000000008152600401610dd7906135ce565b60405180910390fd5b60008263ffffffff16118015610e145750600160109054906101000a900463ffffffff1663ffffffff168263ffffffff1611155b610e53576040517f08c379a0000000000000000000000000000000000000000000000000000000008152600401610e4a9061363a565b60405180910390fd5b6000600260008463ffffffff1663ffffffff168152602001908152602001600020604051806101800160405290816000820160009054906101000a900473ffffffffffffffffffffffffffffffffffffffff1673ffffffffffffffffffffffffffffffffffffffff1673ffffffffffffffffffffffffffffffffffffffff1681526020016001820160009054906101000a900473ffffffffffffffffffffffffffffffffffffffff1673ffffffffffffffffffffffffffffffffffffffff1673ffffffffffffffffffffffffffffffffffffffff1681526020016002820160009054906101000a900460881b70ffffffffffffffffffffffffffffffffff191670ffffffffffffffffffffffffffffffffff1916815260200160028201600f9054906101000a900463ffffffff1663ffffffff1663ffffffff1681526020016002820160139054906101000a900468ffffffffffffffffff1668ffffffffffffffffff1668ffffffffffffffffff16815260200160028201601c9054906101000a900460ff1660ff1660ff16815260200160028201601d9054906101000a900460ff1615151515815260200160028201601e9054906101000a900460ff1615151515815260200160028201601f9054906101000a900460ff161515151581526020016003820160009054906101000a900463ffffffff1663ffffffff1663ffffffff1681526020016003820160049054906101000a900463ffffffff1663ffffffff1663ffffffff1681526020016003820160089054906101000a900463ffffffff1663ffffffff1663ffffffff1681525050905060018260ff1603611406573373ffffffffffffffffffffffffffffffffffffffff16816000015173ffffffffffffffffffffffffffffffffffffffff1614611125576040517f08c379a000000000000000000000000000000000000000000000000000000000815260040161111c906136a6565b60405180910390fd5b80610140015181610120015161113b91906136c6565b63ffffffff164210611182576040517f08c379a00000000000000000000000000000000000000000000000000000000081526004016111799061374a565b60405180910390fd5b60018161010001901515908115158152505080600260008563ffffffff1663ffffffff16815260200190815260200160002060008201518160000160006101000a81548173ffffffffffffffffffffffffffffffffffffffff021916908373ffffffffffffffffffffffffffffffffffffffff16021790555060208201518160010160006101000a81548173ffffffffffffffffffffffffffffffffffffffff021916908373ffffffffffffffffffffffffffffffffffffffff16021790555060408201518160020160006101000a8154816effffffffffffffffffffffffffffff021916908360881c0217905550606082015181600201600f6101000a81548163ffffffff021916908363ffffffff16021790555060808201518160020160136101000a81548168ffffffffffffffffff021916908368ffffffffffffffffff16021790555060a082015181600201601c6101000a81548160ff021916908360ff16021790555060c082015181600201601d6101000a81548160ff02191690831515021790555060e082015181600201601e6101000a81548160ff02191690831515021790555061010082015181600201601f6101000a81548160ff0219169083151502179055506101208201518160030160006101000a81548163ffffffff021916908363ffffffff1602179055506101408201518160030160046101000a81548163ffffffff021916908363ffffffff1602179055506101608201518160030160086101000a81548163ffffffff021916908363ffffffff1602179055509050507f485acdca75f9b7a45909742a024a50c4e4b61f38d3c57d743d816b0eae716ffe81606001516040516113f9919061303e565b60405180910390a1612768565b60028260ff16036117bb5760008160a0015160ff161161145b576040517f08c379a0000000000000000000000000000000000000000000000000000000008152600401611452906137b6565b60405180910390fd5b8060c0015161146957600080fd5b3373ffffffffffffffffffffffffffffffffffffffff16816020015173ffffffffffffffffffffffffffffffffffffffff16146114db576040517f08c379a00000000000000000000000000000000000000000000000000000000081526004016114d290613822565b60405180910390fd5b8061014001518161012001516114f191906136c6565b63ffffffff164210611538576040517f08c379a000000000000000000000000000000000000000000000000000000000815260040161152f9061374a565b60405180910390fd5b60018160e001901515908115158152505080600260008563ffffffff1663ffffffff16815260200190815260200160002060008201518160000160006101000a81548173ffffffffffffffffffffffffffffffffffffffff021916908373ffffffffffffffffffffffffffffffffffffffff16021790555060208201518160010160006101000a81548173ffffffffffffffffffffffffffffffffffffffff021916908373ffffffffffffffffffffffffffffffffffffffff16021790555060408201518160020160006101000a8154816effffffffffffffffffffffffffffff021916908360881c0217905550606082015181600201600f6101000a81548163ffffffff021916908363ffffffff16021790555060808201518160020160136101000a81548168ffffffffffffffffff021916908368ffffffffffffffffff16021790555060a082015181600201601c6101000a81548160ff021916908360ff16021790555060c082015181600201601d6101000a81548160ff02191690831515021790555060e082015181600201601e6101000a81548160ff02191690831515021790555061010082015181600201601f6101000a81548160ff0219169083151502179055506101208201518160030160006101000a81548163ffffffff021916908363ffffffff1602179055506101408201518160030160046101000a81548163ffffffff021916908363ffffffff1602179055506101608201518160030160086101000a81548163ffffffff021916908363ffffffff1602179055509050507fc699433c356d18eba3b1816e0bab046f4bbc4e6cbdd809e85c5c4e6fe26d6a8e81606001516040516117ae919061303e565b60405180910390a1612767565b60038260ff1603611eb857600081600001519050600260ff16600360003373ffffffffffffffffffffffffffffffffffffffff1673ffffffffffffffffffffffffffffffffffffffff16815260200190815260200160002060008373ffffffffffffffffffffffffffffffffffffffff1673ffffffffffffffffffffffffffffffffffffffff16815260200190815260200160002060009054906101000a900462ffffff1662ffffff16106118a5576040517f08c379a000000000000000000000000000000000000000000000000000000000815260040161189c9061388e565b60405180910390fd5b34600560003373ffffffffffffffffffffffffffffffffffffffff1673ffffffffffffffffffffffffffffffffffffffff16815260200190815260200160002054101580156119035750816080015168ffffffffffffffffff163410155b611942576040517f08c379a0000000000000000000000000000000000000000000000000000000008152600401611939906138fa565b60405180910390fd5b8160c0015115611987576040517f08c379a000000000000000000000000000000000000000000000000000000000815260040161197e90613966565b60405180910390fd5b3373ffffffffffffffffffffffffffffffffffffffff168173ffffffffffffffffffffffffffffffffffffffff16036119f5576040517f08c379a00000000000000000000000000000000000000000000000000000000081526004016119ec906139d2565b60405180910390fd5b81610100015115611a3b576040517f08c379a0000000000000000000000000000000000000000000000000000000008152600401611a3290613a3e565b60405180910390fd5b816101400151826101200151611a5191906136c6565b63ffffffff164210611a98576040517f08c379a0000000000000000000000000000000000000000000000000000000008152600401611a8f9061374a565b60405180910390fd5b33826020019073ffffffffffffffffffffffffffffffffffffffff16908173ffffffffffffffffffffffffffffffffffffffff168152505060018260c001901515908115158152505081600260008663ffffffff1663ffffffff16815260200190815260200160002060008201518160000160006101000a81548173ffffffffffffffffffffffffffffffffffffffff021916908373ffffffffffffffffffffffffffffffffffffffff16021790555060208201518160010160006101000a81548173ffffffffffffffffffffffffffffffffffffffff021916908373ffffffffffffffffffffffffffffffffffffffff16021790555060408201518160020160006101000a8154816effffffffffffffffffffffffffffff021916908360881c0217905550606082015181600201600f6101000a81548163ffffffff021916908363ffffffff16021790555060808201518160020160136101000a81548168ffffffffffffffffff021916908368ffffffffffffffffff16021790555060a082015181600201601c6101000a81548160ff021916908360ff16021790555060c082015181600201601d6101000a81548160ff02191690831515021790555060e082015181600201601e6101000a81548160ff02191690831515021790555061010082015181600201601f6101000a81548160ff0219169083151502179055506101208201518160030160006101000a81548163ffffffff021916908363ffffffff1602179055506101408201518160030160046101000a81548163ffffffff021916908363ffffffff1602179055506101608201518160030160086101000a81548163ffffffff021916908363ffffffff160217905550905050600360003373ffffffffffffffffffffffffffffffffffffffff1673ffffffffffffffffffffffffffffffffffffffff16815260200190815260200160002060008273ffffffffffffffffffffffffffffffffffffffff1673ffffffffffffffffffffffffffffffffffffffff168152602001908152602001600020600081819054906101000a900462ffffff1680929190611dae90613557565b91906101000a81548162ffffff021916908362ffffff1602179055505034600560003373ffffffffffffffffffffffffffffffffffffffff1673ffffffffffffffffffffffffffffffffffffffff1681526020019081526020016000206000828254611e1a9190613105565b9250508190555034600560008373ffffffffffffffffffffffffffffffffffffffff1673ffffffffffffffffffffffffffffffffffffffff1681526020019081526020016000206000828254611e709190613a5e565b925050819055507fa3895b41cd4bec1c5ebe6992eef0c859229c75a7d6d5f49657a168bee8fe2cd08260600151604051611eaa919061303e565b60405180910390a150612766565b60048260ff1603612765576000816020015190503373ffffffffffffffffffffffffffffffffffffffff16826000015173ffffffffffffffffffffffffffffffffffffffff1614611f3e576040517f08c379a0000000000000000000000000000000000000000000000000000000008152600401611f3590613ade565b60405180910390fd5b6000600360008373ffffffffffffffffffffffffffffffffffffffff1673ffffffffffffffffffffffffffffffffffffffff16815260200190815260200160002060003373ffffffffffffffffffffffffffffffffffffffff1673ffffffffffffffffffffffffffffffffffffffff16815260200190815260200160002060009054906101000a900462ffffff1662ffffff1611612011576040517f08c379a000000000000000000000000000000000000000000000000000000000815260040161200890613b4a565b60405180910390fd5b8160c00151612055576040517f08c379a000000000000000000000000000000000000000000000000000000000815260040161204c90613bb6565b60405180910390fd5b3373ffffffffffffffffffffffffffffffffffffffff168173ffffffffffffffffffffffffffffffffffffffff16036120c3576040517f08c379a00000000000000000000000000000000000000000000000000000000081526004016120ba90613c22565b60405180910390fd5b60008261014001518361012001516120db91906136c6565b63ffffffff1642106120ec57600090505b8261010001511561219d5734600560003373ffffffffffffffffffffffffffffffffffffffff1673ffffffffffffffffffffffffffffffffffffffff16815260200190815260200160002054101580156121555750826080015168ffffffffffffffffff163410155b612194576040517f08c379a000000000000000000000000000000000000000000000000000000000815260040161218b90613c8e565b60405180910390fd5b60649050612317565b60008360a0015160ff16116121e7576040517f08c379a00000000000000000000000000000000000000000000000000000000081526004016121de906137b6565b60405180910390fd5b82610160015183610140015184610120015161220391906136c6565b61220d9190613cae565b63ffffffff164210612254576040517f08c379a000000000000000000000000000000000000000000000000000000000815260040161224b90613d32565b60405180910390fd5b34600560003373ffffffffffffffffffffffffffffffffffffffff1673ffffffffffffffffffffffffffffffffffffffff16815260200190815260200160002054101580156122d0575060648360a0015160ff1684608001516122b79190613d52565b6122c19190613dbe565b68ffffffffffffffffff163410155b61230f576040517f08c379a000000000000000000000000000000000000000000000000000000000815260040161230690613c8e565b60405180910390fd5b8260a0015190505b33836020019073ffffffffffffffffffffffffffffffffffffffff16908173ffffffffffffffffffffffffffffffffffffffff168152505060008360c001901515908115158152505060008360e001901515908115158152505082600260008763ffffffff1663ffffffff16815260200190815260200160002060008201518160000160006101000a81548173ffffffffffffffffffffffffffffffffffffffff021916908373ffffffffffffffffffffffffffffffffffffffff16021790555060208201518160010160006101000a81548173ffffffffffffffffffffffffffffffffffffffff021916908373ffffffffffffffffffffffffffffffffffffffff16021790555060408201518160020160006101000a8154816effffffffffffffffffffffffffffff021916908360881c0217905550606082015181600201600f6101000a81548163ffffffff021916908363ffffffff16021790555060808201518160020160136101000a81548168ffffffffffffffffff021916908368ffffffffffffffffff16021790555060a082015181600201601c6101000a81548160ff021916908360ff16021790555060c082015181600201601d6101000a81548160ff02191690831515021790555060e082015181600201601e6101000a81548160ff02191690831515021790555061010082015181600201601f6101000a81548160ff0219169083151502179055506101208201518160030160006101000a81548163ffffffff021916908363ffffffff1602179055506101408201518160030160046101000a81548163ffffffff021916908363ffffffff1602179055506101608201518160030160086101000a81548163ffffffff021916908363ffffffff160217905550905050600360008373ffffffffffffffffffffffffffffffffffffffff1673ffffffffffffffffffffffffffffffffffffffff16815260200190815260200160002060003373ffffffffffffffffffffffffffffffffffffffff1673ffffffffffffffffffffffffffffffffffffffff168152602001908152602001600020600081819054906101000a900462ffffff168092919061263e90613def565b91906101000a81548162ffffff021916908362ffffff16021790555050600060648260ff163461266e9190613e18565b6126789190613e5a565b905080600560003373ffffffffffffffffffffffffffffffffffffffff1673ffffffffffffffffffffffffffffffffffffffff16815260200190815260200160002060008282546126c99190613105565b9250508190555080600560008573ffffffffffffffffffffffffffffffffffffffff1673ffffffffffffffffffffffffffffffffffffffff168152602001908152602001600020600082825461271f9190613a5e565b925050819055507fd5252620fac612f0a6ddbaf7a1371309d3663e5a347f99ef9c3aa6da358209f38460600151604051612759919061303e565b60405180910390a15050505b5b5b5b505050565b80341461277957600080fd5b80600560003373ffffffffffffffffffffffffffffffffffffffff1673ffffffffffffffffffffffffffffffffffffffff16815260200190815260200160002060008282546127c89190613a5e565b9250508190555050565b60026020528060005260406000206000915090508060000160009054906101000a900473ffffffffffffffffffffffffffffffffffffffff16908060010160009054906101000a900473ffffffffffffffffffffffffffffffffffffffff16908060020160009054906101000a900460881b9080600201600f9054906101000a900463ffffffff16908060020160139054906101000a900468ffffffffffffffffff169080600201601c9054906101000a900460ff169080600201601d9054906101000a900460ff169080600201601e9054906101000a900460ff169080600201601f9054906101000a900460ff16908060030160009054906101000a900463ffffffff16908060030160049054906101000a900463ffffffff16908060030160089054906101000a900463ffffffff1690508c565b600160109054906101000a900463ffffffff1681565b604051806101800160405280600073ffffffffffffffffffffffffffffffffffffffff168152602001600073ffffffffffffffffffffffffffffffffffffffff168152602001600070ffffffffffffffffffffffffffffffffff19168152602001600063ffffffff168152602001600068ffffffffffffffffff168152602001600060ff168152602001600015158152602001600015158152602001600015158152602001600063ffffffff168152602001600063ffffffff168152602001600063ffffffff1681525090565b60007fffffffffffffffffffffffffffffffff0000000000000000000000000000000082169050919050565b612a20816129eb565b82525050565b6000602082019050612a3b6000830184612a17565b92915050565b600060ff82169050919050565b612a5781612a41565b82525050565b6000602082019050612a726000830184612a4e565b92915050565b6000604051905090565b600080fd5b600080fd5b600073ffffffffffffffffffffffffffffffffffffffff82169050919050565b6000612ab782612a8c565b9050919050565b612ac781612aac565b8114612ad257600080fd5b50565b600081359050612ae481612abe565b92915050565b600060208284031215612b0057612aff612a82565b5b6000612b0e84828501612ad5565b91505092915050565b600062ffffff82169050919050565b612b2f81612b17565b82525050565b6000602082019050612b4a6000830184612b26565b92915050565b600068ffffffffffffffffff82169050919050565b612b6e81612b50565b82525050565b6000602082019050612b896000830184612b65565b92915050565b6000819050919050565b612ba281612b8f565b8114612bad57600080fd5b50565b600081359050612bbf81612b99565b92915050565b600060208284031215612bdb57612bda612a82565b5b6000612be984828501612bb0565b91505092915050565b60008060408385031215612c0957612c08612a82565b5b6000612c1785828601612ad5565b9250506020612c2885828601612ad5565b9150509250929050565b600080fd5b600080fd5b6000601f19601f8301169050919050565b7f4e487b7100000000000000000000000000000000000000000000000000000000600052604160045260246000fd5b612c8582612c3c565b810181811067ffffffffffffffff82111715612ca457612ca3612c4d565b5b80604052505050565b6000612cb7612a78565b9050612cc38282612c7c565b919050565b600067ffffffffffffffff821115612ce357612ce2612c4d565b5b612cec82612c3c565b9050602081019050919050565b82818337600083830152505050565b6000612d1b612d1684612cc8565b612cad565b905082815260208101848484011115612d3757612d36612c37565b5b612d42848285612cf9565b509392505050565b600082601f830112612d5f57612d5e612c32565b5b8135612d6f848260208601612d08565b91505092915050565b612d8181612b50565b8114612d8c57600080fd5b50565b600081359050612d9e81612d78565b92915050565b612dad81612a41565b8114612db857600080fd5b50565b600081359050612dca81612da4565b92915050565b600063ffffffff82169050919050565b612de981612dd0565b8114612df457600080fd5b50565b600081359050612e0681612de0565b92915050565b600080600080600060a08688031215612e2857612e27612a82565b5b600086013567ffffffffffffffff811115612e4657612e45612a87565b5b612e5288828901612d4a565b9550506020612e6388828901612d8f565b9450506040612e7488828901612dbb565b9350506060612e8588828901612df7565b9250506080612e9688828901612df7565b9150509295509295909350565b60008060408385031215612eba57612eb9612a82565b5b6000612ec885828601612df7565b9250506020612ed985828601612dbb565b9150509250929050565b600060208284031215612ef957612ef8612a82565b5b6000612f0784828501612df7565b91505092915050565b612f1981612aac565b82525050565b60007fffffffffffffffffffffffffffffff000000000000000000000000000000000082169050919050565b612f5481612f1f565b82525050565b612f6381612dd0565b82525050565b60008115159050919050565b612f7e81612f69565b82525050565b600061018082019050612f9a600083018f612f10565b612fa7602083018e612f10565b612fb4604083018d612f4b565b612fc1606083018c612f5a565b612fce608083018b612b65565b612fdb60a083018a612a4e565b612fe860c0830189612f75565b612ff560e0830188612f75565b613003610100830187612f75565b613011610120830186612f5a565b61301f610140830185612f5a565b61302d610160830184612f5a565b9d9c50505050505050505050505050565b60006020820190506130536000830184612f5a565b92915050565b600082825260208201905092915050565b7f4f776e6572206f6e6c7900000000000000000000000000000000000000000000600082015250565b60006130a0600a83613059565b91506130ab8261306a565b602082019050919050565b600060208201905081810360008301526130cf81613093565b9050919050565b7f4e487b7100000000000000000000000000000000000000000000000000000000600052601160045260246000fd5b600061311082612b8f565b915061311b83612b8f565b9250828203905081811115613133576131326130d6565b5b92915050565b600081905092915050565b50565b6000613154600083613139565b915061315f82613144565b600082019050919050565b600061317582613147565b9150819050919050565b7f5472616e73666572206661696c65642e00000000000000000000000000000000600082015250565b60006131b5601083613059565b91506131c08261317f565b602082019050919050565b600060208201905081810360008301526131e4816131a8565b9050919050565b7f496e76616c6964206e616d652070617373656420746f20637265617465000000600082015250565b6000613221601d83613059565b915061322c826131eb565b602082019050919050565b6000602082019050818103600083015261325081613214565b9050919050565b7f56657279206c6f6e67206e616d652070617373656420746f2063726561746500600082015250565b600061328d601f83613059565b915061329882613257565b602082019050919050565b600060208201905081810360008301526132bc81613280565b9050919050565b7f56657279206c6f772070726963652070617373656420746f2063726561746500600082015250565b60006132f9601f83613059565b9150613304826132c3565b602082019050919050565b60006020820190508181036000830152613328816132ec565b9050919050565b7f486967682070726963652070617373656420746f206372656174650000000000600082015250565b6000613365601b83613059565b91506133708261332f565b602082019050919050565b6000602082019050818103600083015261339481613358565b9050919050565b7f4d6178696d756d2070726f647563747320726561636865640000000000000000600082015250565b60006133d1601883613059565b91506133dc8261339b565b602082019050919050565b60006020820190508181036000830152613400816133c4565b9050919050565b7f496e76616c69642070657263656e746167652070617373656420746f2063726560008201527f6174650000000000000000000000000000000000000000000000000000000000602082015250565b6000613463602383613059565b915061346e82613407565b604082019050919050565b6000602082019050818103600083015261349281613456565b9050919050565b7f496e76616c6964206475726174696f6e2070617373656420746f20637265617460008201527f6500000000000000000000000000000000000000000000000000000000000000602082015250565b60006134f5602183613059565b915061350082613499565b604082019050919050565b60006020820190508181036000830152613524816134e8565b9050919050565b600061353682612dd0565b915063ffffffff820361354c5761354b6130d6565b5b600182019050919050565b600061356282612b17565b915062ffffff8203613577576135766130d6565b5b600182019050919050565b7f496e76616c696420636f64652070617373656420746f206d6f72706800000000600082015250565b60006135b8601c83613059565b91506135c382613582565b602082019050919050565b600060208201905081810360008301526135e7816135ab565b9050919050565b7f496e76616c69642049442070617373656420746f206d6f727068000000000000600082015250565b6000613624601a83613059565b915061362f826135ee565b602082019050919050565b6000602082019050818103600083015261365381613617565b9050919050565b7f556e617574686f72697a6564207769746864726177616c20617474656d707400600082015250565b6000613690601f83613059565b915061369b8261365a565b602082019050919050565b600060208201905081810360008301526136bf81613683565b9050919050565b60006136d182612dd0565b91506136dc83612dd0565b9250828201905063ffffffff8111156136f8576136f76130d6565b5b92915050565b7f50726f6475637420657870697265640000000000000000000000000000000000600082015250565b6000613734600f83613059565b915061373f826136fe565b602082019050919050565b6000602082019050818103600083015261376381613727565b9050919050565b7f50726f64756374206973206e6f6e2d726566756e6461626c6500000000000000600082015250565b60006137a0601983613059565b91506137ab8261376a565b602082019050919050565b600060208201905081810360008301526137cf81613793565b9050919050565b7f556e617574686f72697a6564207265717565737420617474656d707400000000600082015250565b600061380c601c83613059565b9150613817826137d6565b602082019050919050565b6000602082019050818103600083015261383b816137ff565b9050919050565b7f5468726573686f6c6420666f722070726f647563747320726561636865640000600082015250565b6000613878601e83613059565b915061388382613842565b602082019050919050565b600060208201905081810360008301526138a78161386b565b9050919050565b7f496e73757474696369656e742066756e647320666f7220707572636861736500600082015250565b60006138e4601f83613059565b91506138ef826138ae565b602082019050919050565b60006020820190508181036000830152613913816138d7565b9050919050565b7f50726f6475637420616c72656164792070757263686173656400000000000000600082015250565b6000613950601983613059565b915061395b8261391a565b602082019050919050565b6000602082019050818103600083015261397f81613943565b9050919050565b7f43697263756c617220707572636861736520617474656d707400000000000000600082015250565b60006139bc601983613059565b91506139c782613986565b602082019050919050565b600060208201905081810360008301526139eb816139af565b9050919050565b7f50726f647563742077697468647261776e000000000000000000000000000000600082015250565b6000613a28601183613059565b9150613a33826139f2565b602082019050919050565b60006020820190508181036000830152613a5781613a1b565b9050919050565b6000613a6982612b8f565b9150613a7483612b8f565b9250828201905080821115613a8c57613a8b6130d6565b5b92915050565b7f556e617574686f72697a65642072657475726e20617474656d70740000000000600082015250565b6000613ac8601b83613059565b9150613ad382613a92565b602082019050919050565b60006020820190508181036000830152613af781613abb565b9050919050565b7f4e6f207469636b65747320746f2072657475726e000000000000000000000000600082015250565b6000613b34601483613059565b9150613b3f82613afe565b602082019050919050565b60006020820190508181036000830152613b6381613b27565b9050919050565b7f50726f64756374206e6f74207965742070757263686173656400000000000000600082015250565b6000613ba0601983613059565b9150613bab82613b6a565b602082019050919050565b60006020820190508181036000830152613bcf81613b93565b9050919050565b7f43697263756c61722072657475726e20617474656d7074000000000000000000600082015250565b6000613c0c601783613059565b9150613c1782613bd6565b602082019050919050565b60006020820190508181036000830152613c3b81613bff565b9050919050565b7f496e73757474696369656e742066756e647320666f722072657475726e000000600082015250565b6000613c78601d83613059565b9150613c8382613c42565b602082019050919050565b60006020820190508181036000830152613ca781613c6b565b9050919050565b6000613cb982612dd0565b9150613cc483612dd0565b9250828203905063ffffffff811115613ce057613cdf6130d6565b5b92915050565b7f50726f64756374206861732070617373656420726566756e642077696e646f77600082015250565b6000613d1c602083613059565b9150613d2782613ce6565b602082019050919050565b60006020820190508181036000830152613d4b81613d0f565b9050919050565b6000613d5d82612b50565b9150613d6883612b50565b9250828202613d7681612b50565b9150808214613d8857613d876130d6565b5b5092915050565b7f4e487b7100000000000000000000000000000000000000000000000000000000600052601260045260246000fd5b6000613dc982612b50565b9150613dd483612b50565b925082613de457613de3613d8f565b5b828204905092915050565b6000613dfa82612b17565b915060008203613e0d57613e0c6130d6565b5b600182039050919050565b6000613e2382612b8f565b9150613e2e83612b8f565b9250828202613e3c81612b8f565b91508282048414831517613e5357613e526130d6565b5b5092915050565b6000613e6582612b8f565b9150613e7083612b8f565b925082613e8057613e7f613d8f565b5b82820490509291505056fea26469706673582212200951ee19a38d5958b12169c886a6f64a84fd557581f6958fe55b70adaa6aeec064736f6c63430008110033",
  "immutableReferences": {},
  "source": "// SPDX-License-Identifier: MIT\r\n\r\npragma solidity ^0.8.0;\r\n\r\ncontract Marketplace {\r\n\r\n\t// Slot 1\r\n\taddress private owner; \r\n\t// Slot 2\r\n\tbytes16 public name;\r\n\tuint32 public productCount;\r\n\tuint8 public constant maxProductsPerBuyerPerIssuer = 2; \r\n\tuint8 public constant percentFee = 3; // MUST NEVER BE ZERO!!!\r\n\t// Slot 3\r\n\tuint72 public constant maximumPrice = 5e17 wei; // 0.5 eth\r\n\tuint8 public constant maxProductsPerIssuer = 5; \r\n\tbool private stopped = false; \r\n\r\n\tmapping(uint32 => Product) public products;\r\n\tmapping(address => mapping(address => uint24)) public productsPerBuyerPerIssuer; \r\n\tmapping(address => uint24) public productsPerIssuer; \r\n\tmapping(address => uint256) private balancePerCustomer; \r\n\r\n\t// Note on uint: uint256 by default, aiiowing 2**256-1 ~ 1 possibilities\r\n\tstruct Product {\r\n\t\t// Slot 1\r\n\t\taddress issuer; // Issuer of ticket (e.g., event host, trusted third party)\r\n\t\t// Slot 2\r\n\t\taddress holder; // Holder of ticket\r\n\t\t// Slot 3\r\n\t\tbytes15 name; // Location of ticket in venue (max: 15 characters)\r\n\t\tuint32 id; // Unique ticket ID (numerical max: 4.3 billion tickets)\r\n\t\tuint72 price; // Price in Wei (numerical max: 4722.4 Eth)\r\n\t\tuint8 percentRefund; // Non-refundable products (percentRefund == 0) can be purchased but not returned\r\n\t\tbool purchased; // Purchased products cannot be bought again\r\n\t\tbool returnRequested; // Buyer can request refunds, but seller must unilaterally approve requests\r\n\t\tbool withdrawn; // Withdrawn products can be returned but not purchased\r\n\t\t// Slot 4\r\n\t\tuint32 creationTime; // The code WILL break at 6:28:15 am UTC on February 7, 2106\r\n\t\tuint32 duration; // creationTime + duration is the ticket expiry time (seconds)\r\n\t\tuint32 refundWindow; // creationTime + duration - refundWindow is the last opportunity to return with a refund (seconds)\r\n\t}\r\n\r\n\tevent ProductCreated(\r\n\t\t// Slot 1\r\n\t\taddress issuer,\r\n\t\t// Slot 2\r\n\t\taddress holder,\r\n\t\t// Slot 3\r\n\t\tbytes15 name,\r\n\t\tuint32 id,\r\n\t\tuint72 price,\r\n\t\tuint8 percentRefund, \r\n\t\tbool purchased, \r\n\t\tbool returnRequested, \r\n\t\tbool withdrawn,\r\n\t\tuint32 creationTime,\r\n\t\tuint32 duration, \r\n\t\tuint32 refundWindow\r\n\t);\r\n\r\n\tevent ProductWithdrawn(uint32 id);\r\n\r\n\tevent ReturnRequested(uint32 id);\r\n\r\n\tevent ProductPurchased(uint32 id);\r\n\r\n\tevent ProductReturned(uint32 id);\r\n\r\n\tconstructor() {\r\n\t\tname = \"Ticketly\";\r\n\t\towner = msg.sender; \r\n\t}\r\n\r\n\tmodifier isAdmin() {\r\n\t\trequire(msg.sender == owner, \"Owner only\");\r\n\t\t_;\r\n\t}\r\n\r\n\tmodifier stopInEmergency { if (!stopped) _; }\r\n\r\n\t// modifier onlyInEmergency { if (stopped) _; }\r\n\r\n\t// Receive function: only for paying Ethereum to contract\r\n\treceive() external payable {\r\n\t\t// Empty\r\n\t}\r\n\r\n\t// Fallback function: miscellaneous things\r\n\tfallback() external {\r\n\t\trequire(msg.data.length == 0); \r\n\t}\r\n\r\n\tfunction toggleContractActive() isAdmin public {\r\n\t    stopped = !stopped;\r\n\t}\r\n\r\n\tfunction deposit(uint256 amount) public payable {\r\n\t\trequire(msg.value == amount); \r\n\t\tbalancePerCustomer[msg.sender] += amount; \r\n\t}\r\n\r\n\tfunction withdraw(uint256 amount) public {\r\n\t\trequire(amount <= balancePerCustomer[msg.sender]); \r\n\t\tbalancePerCustomer[msg.sender] -= amount; \r\n\t\t(bool success, ) = payable(msg.sender).call{value:amount}(\"\");\r\n    \trequire(success, \"Transfer failed.\");\r\n\t}\r\n\r\n\t// msg.sender is the issuer\r\n\t// Transaction fee for owner: 0 Wei\r\n\tfunction createProduct(string memory _name, uint72 _price, uint8 _percentRefund, uint32 _duration, uint32 _refundWindow) stopInEmergency public {\r\n\t\tuint len = bytes(_name).length; \r\n\t\t// Require a valid name\r\n\t\trequire(len > 0, \"Invalid name passed to create\"); \r\n\t\t// Require a short name\r\n\t\trequire(len <= 15, \"Very long name passed to create\"); \r\n\t\t// Require a valid price (so that 1% of the minimum price = 1 wei)\r\n\t\trequire(_price >= 100, \"Very low price passed to create\"); \r\n\t\t// Require a price less than maximumPrice\r\n\t\trequire(_price <= maximumPrice, \"High price passed to create\"); \r\n\t\t// Require cap on tickets issued\r\n\t\trequire(productsPerIssuer[msg.sender] < maxProductsPerIssuer, \"Maximum products reached\");\r\n\t\t// Require a valid percent\r\n\t\trequire(_percentRefund >= 0 && _percentRefund <= 100, \"Invalid percentage passed to create\"); \r\n\t\t// Require valid duration\r\n\t\trequire(_duration > _refundWindow, \"Invalid duration passed to create\"); \r\n\t\t// Increment product count\r\n\t\tproductCount++;\r\n\t\t// Convert string name to bytes15\r\n\t\t// Source: https://ethereum.stackexchange.com/questions/9142/how-to-convert-a-string-to-bytes32\r\n\t\tbytes15 _name15;\r\n\t\tassembly {\r\n\t        _name15 := mload(add(_name, 15))\r\n\t    }\r\n\t    // Create product\r\n\t\tProduct memory _product;\r\n\t\t_product.issuer = msg.sender;\r\n\t\t_product.holder = msg.sender;\r\n\t\t_product.name = _name15;\r\n\t\t_product.id = productCount; \r\n\t\t_product.price = _price; \r\n\t\t_product.percentRefund = _percentRefund;\r\n\t\t_product.purchased = false;\r\n\t\t_product.returnRequested = false;\r\n\t\t_product.withdrawn = false;\r\n\t\t_product.creationTime = uint32(block.timestamp);\r\n\t\t_product.duration = _duration; \r\n\t\t_product.refundWindow = _refundWindow; \r\n\t\tproducts[productCount] = _product;\r\n\t\t// Add product to productsPerIssuer mapping\r\n\t\tproductsPerIssuer[msg.sender]++; \r\n\t\t// Trigger an event\r\n\t\temit ProductCreated(msg.sender, msg.sender, _name15, productCount, _price, _percentRefund, false, false, false, _product.creationTime, _duration, _refundWindow);\r\n\t}\r\n\r\n\t// _code = 1: withdrawProduct\r\n\t// _code = 2: requestReturn\r\n\t// _code = 3: purchaseProduct\r\n\t// _code = 4: returnProduct\r\n\tfunction morphProduct(uint32 _id, uint8 _code) payable external { // payable\r\n\r\n\t\t// Check if code is valid\r\n\t\trequire(_code > 0 && _code < 5, \"Invalid code passed to morph\");\r\n\t\t// Check if product has valid ID\r\n\t\trequire(_id > 0 && _id <= productCount, \"Invalid ID passed to morph\"); \r\n\r\n\t\t// Fetch the product\r\n\t\tProduct memory _product = products[_id];\r\n\r\n\t\t// Irreversibly withdraws products[_id] from the market\r\n\t\tif (_code == 1) {\r\n\t\t\t// Require that issuer is valid\r\n\t\t\trequire(_product.issuer == msg.sender, \"Unauthorized withdrawal attempt\"); \r\n\t\t\t// Require that the product is not expired\r\n\t\t\trequire(block.timestamp < _product.creationTime + _product.duration, \"Product expired\"); \r\n\t\t\t// Make withdrawn\r\n\t\t\t_product.withdrawn = true; \r\n\t\t\t// Update the product\r\n\t\t\tproducts[_id] = _product; \r\n\t\t\t// Trigger an event\r\n\t\t\temit ProductWithdrawn(_product.id);\r\n\t\t}\r\n\r\n\t\t// Requests for issuer to refund item\r\n\t\telse if (_code == 2) {\r\n\t\t\t// Require that product is refundable\r\n\t\t\trequire(_product.percentRefund > 0, \"Product is non-refundable\"); \r\n\t\t\t// Require that product has been purchased\r\n\t\t\trequire(_product.purchased); \r\n\t\t\t// Require that buyer is valid\r\n\t\t\trequire(_product.holder == msg.sender, \"Unauthorized request attempt\"); \r\n\t\t\t// Require that the product is not expired\r\n\t\t\trequire(block.timestamp < _product.creationTime + _product.duration, \"Product expired\"); \r\n\t\t\t// Request return\r\n\t\t\t_product.returnRequested = true; \r\n\t\t\t// Update the product\r\n\t\t\tproducts[_id] = _product; \r\n\t\t\t// Trigger an event\r\n\t\t\temit ReturnRequested(_product.id);\r\n\t\t}\r\n\r\n\t\t// Purchases ticket from issuer\r\n\t\telse if (_code == 3) {\r\n\t\t\t// Fetch the issuer\r\n\t\t\taddress _issuer = _product.issuer;\r\n\t\t\t// Check if buyer has bought too many tickets\r\n\t\t\trequire(productsPerBuyerPerIssuer[msg.sender][_issuer] < maxProductsPerBuyerPerIssuer, \"Threshold for products reached\"); \r\n\t\t\t// Check if value has enough ether attached\r\n\t\t\trequire(balancePerCustomer[msg.sender] >= msg.value && msg.value >= _product.price, \"Insutticient funds for purchase\");\r\n\t\t\t// Require that product has not been purchased\r\n\t\t\trequire(!_product.purchased, \"Product already purchased\");\r\n\t\t\t// Require that buyer is not issuer\r\n\t\t\trequire(_issuer != msg.sender, \"Circular purchase attempt\"); \r\n\t\t\t// Require that the product is not withdrawn\r\n\t\t\trequire(!_product.withdrawn, \"Product withdrawn\"); \r\n\t\t\t// Require that the product is not expired\r\n\t\t\trequire(block.timestamp < _product.creationTime + _product.duration, \"Product expired\"); \r\n\t\t\t// Transfer holder status to buyer\r\n\t\t\t_product.holder = msg.sender; \r\n\t\t\t// Mark as purchased\r\n\t\t\t_product.purchased = true;\r\n\t\t\t// Update the product\r\n\t\t\tproducts[_id] = _product; \r\n\t\t\t// Update mapping\r\n\t\t\tproductsPerBuyerPerIssuer[msg.sender][_issuer]++; \r\n\t\t\t// Buyer balance sends funds to issuer balance\r\n\t\t\tbalancePerCustomer[msg.sender] -= msg.value; \r\n\t\t\tbalancePerCustomer[_issuer] += msg.value; \r\n\t\t\t// Trigger event\r\n\t\t\temit ProductPurchased(_product.id);\r\n\t\t}\r\n\r\n\t\t// Returns ticket to issuer\r\n\t\telse if (_code == 4) {\r\n\t\t\t// Fetch the holder\r\n\t\t\taddress _buyer = _product.holder;\r\n\t\t\t// Require that issuer is valid\r\n\t\t\trequire(_product.issuer == msg.sender, \"Unauthorized return attempt\"); \r\n\t\t\t// Check if buyer currently holds ticket\r\n\t\t\trequire(productsPerBuyerPerIssuer[_buyer][msg.sender] > 0, \"No tickets to return\"); \r\n\t\t\t// Require that product has been purchased\r\n\t\t\trequire(_product.purchased, \"Product not yet purchased\");\r\n\t\t\t// Require that buyer is not issuer\r\n\t\t\trequire(_buyer != msg.sender, \"Circular return attempt\"); \r\n\r\n\t\t\tuint8 _percentRefund; \r\n\r\n\t\t\t// If ticket expired, return without refund\r\n\t\t\tif (block.timestamp >= _product.creationTime + _product.duration) {\r\n\t\t\t\t_percentRefund = 0; \r\n\t\t\t}\r\n\r\n\t\t\t// Otherwise, if product is withdrawn, give a full refund regardless of _product.percentRefund\r\n\t\t\tif (_product.withdrawn) {\r\n\t\t\t\t// Check if value has enough ether attached\r\n\t\t\t\trequire(balancePerCustomer[msg.sender] >= msg.value && msg.value >= _product.price, \"Insutticient funds for return\");\r\n\t\t\t\t_percentRefund = 100; \r\n\t\t\t}\r\n\r\n\t\t\t// Otherwise, trigger the vanilla logic for refunds\r\n\t\t\telse {\r\n\t\t\t\t// Require that product is refundable\r\n\t\t\t\trequire(_product.percentRefund > 0, \"Product is non-refundable\"); \r\n\t\t\t\t// Require that product has not reached non-refundable window\r\n\t\t\t\trequire(block.timestamp < _product.creationTime + _product.duration - _product.refundWindow, \"Product has passed refund window\"); \r\n\t\t\t\t// Check if value has enough ether attached\r\n\t\t\t\trequire(balancePerCustomer[msg.sender] >= msg.value && msg.value >= _product.price * _product.percentRefund / 100, \"Insutticient funds for return\");\r\n\t\t\t\t_percentRefund = _product.percentRefund; \r\n\t\t\t}\r\n\r\n\t\t\t// Transfer holdership back to issuer\r\n\t\t\t_product.holder = msg.sender; \r\n\t\t\t// Revert purchased status\r\n\t\t\t_product.purchased = false;\r\n\t\t\t// Delete history of return request (if any)\r\n\t\t\t_product.returnRequested = false; \r\n\t\t\t// Update the product\r\n\t\t\tproducts[_id] = _product; \r\n\t\t\t// Update mapping\r\n\t\t\tproductsPerBuyerPerIssuer[_buyer][msg.sender]--; \r\n\t\t\t// Issuer balance sends refund to buyer balance\r\n\t\t\tuint refund = msg.value * _percentRefund / 100; \r\n\t\t\tbalancePerCustomer[msg.sender] -= refund; \r\n\t\t\tbalancePerCustomer[_buyer] += refund; \r\n\t\t\t// Trigger event\r\n\t\t\temit ProductReturned(_product.id);\r\n\t\t}\r\n\t}\r\n}",
  "sourcePath": "C:\\Coding\\ticketly\\src\\contracts\\Marketplace.sol",
  "compiler": {
    "name": "solc",
    "version": "0.8.17+commit.8df45f5f.Emscripten.clang"
  },
  "schemaVersion": "3.4.9",
  "updatedAt": "2022-09-12T06:41:43.944Z",
  "networkType": "ethereum",
  "devdoc": {
    "kind": "dev",
    "methods": {},
    "version": 1
  },
  "userdoc": {
    "kind": "user",
    "methods": {},
    "version": 1
  }
}